:040000000BEF00F012
:100008004482FACF20F0FBCF21F049ED03F075EFE1
:0200180006F0F0
:100600000001000A006400E8031027010010000048
:100610000100102532582025325820253258202537
:10062000325820253258202532582025325820258E
:1006300032582C2025325820253258202532582077
:10064000253258202532582025325820253258206E
:100650002532580A00426C6F636F3A2025580A739E
:10066000697A65203D2025640A6E657874203D20F6
:1006700025580A66726565203D2025640A0A003007
:1006800031323334353637383941424344454600F8
:010690000069
:100692000600E9CF22F0EACF23F0E1CF24F0E2CF47
:1006A20025F0D9CF26F0DACF27F0F3CF28F0F4CF18
:1006B20029F0F6CF2AF0F7CF2BF0F8CF2CF0F5CFB8
:1006C2002DF0416EE0CF3FF0D8CF40F0F2BAF2A465
:1006D200DED044C42FF045C430F02F503010D8B4CF
:1006E2005CD0070E2F24366E000E3020376E36C0D7
:1006F200D9FF37C0DAFF41C0DFFF20EE01F03650EC
:10070200D9263750DA223FC0DFFF20EE02F0365002
:10071200D9263750DA2240C0DFFF030E3624336E6B
:10072200000E3720346E33D020EE5DF03350D926E0
:100732003450DA22DF502E6E20EE5DF03350D9268F
:100742003450DA22DF2AFE501A6E196AFF501B6EED
:100752001C6A19501B121A501C12FD501B12000E5B
:100762001C121BC01DF01CC01EF01F6A1EBE1F689B
:100772002E50030DF3503324D96EF4503420DA6E28
:100782001DC0DEFF1EC0DEFF1FC0DEFF0600FCCF65
:1007920019F01F0E1916D8A4C7D7D4EC06F044C41A
:1007A20031F045C432F031503210D8B470D0070E57
:1007B20031243A6E000E32203B6E3AC0D9FF3BC064
:1007C200DAFFDF50416E20EE01F03A50D9263B505D
:1007D200DA22DF503F6E20EE02F03A50D9263B502B
:1007E200DA22DF50406E030E3A24386E000E3B20B0
:1007F200396E44D020EE5DF03850D9263950DA22D5
:10080200DF06DF50356E0500100E196E3550030DF0
:10081200F3503824D96EF4503920DA6EDECF1AF054
:10082200DECF1BF0DECF1CF019281D6E04D0D8904D
:100832001C321B321A321D2EFAD71A50FF6E355057
:10084200030DF3503824D96EF4503920DA6EDECF1E
:1008520019F0DECF1AF0DECF1BF01AC019F01BC060
:100862001AF01B6A1950FE6E3550030DF3503824EE
:10087200D96EF4503920DA6EDF50FD6E20EE5DF055
:100882003850D9263950DA22DF50D8A4B3D73FC026
:10089200E0FF40C0D8FF41502DC0F5FF2CC0F8FF4B
:1008A2002BC0F7FF2AC0F6FF29C0F4FF28C0F3FFD0
:1008B20027C0DAFF26C0D9FF25C0E2FF24C0E1FF2E
:1008C20023C0EAFF22C0E9FF21C0FBFF20C0FAFFDC
:1008D200449211000D680E68000E166E000E156E21
:1008E20016BE06D0165027E1030E155CD8B023D0F1
:1008F20024EE44F015C001F016C002F0000E046EA2
:10090200680E036EC1EC06F00B0E0B6E030E0C6E3E
:1009120001500B2602500C22DE500B1809E1DE506A
:100922000C18D8A405D015C00DF016C00EF003D0D7
:10093200154A162AD5D7800E0F6E000E106E000EC5
:10094200146E000E136E14BE06D0145045E1030E51
:10095200135CD8B041D013500D24096E14500E20F0
:100962000A6E010E0924016E000E0A20026E000EAC
:10097200046E030E036E90EC05F001C011F002C08C
:1009820012F011C001F012C002F0000E046E680EE7
:10099200036EC1EC06F0040E0126000E02220B0EBD
:1009A2000124D96E030E0220DA6EDF50D8A411D0D2
:1009B20011C001F012C002F0000E046E680E036E48
:1009C200C1EC06F00B0E01240F6E030E0220106E16
:1009D20003D0134A142AB7D70FC007F010C008F08B
:1009E2001200AAEC06F0F0C009F1F1C00AF109C147
:1009F200D9FF0AC1DAFF00C1DEFF01C1DDFF01013B
:100A020020EE02F00951D9260A51DA2202C1DEFF94
:100A120003C1DDFF010120EE05F00951D9260A517B
:100A2200DA2204C1DEFF05C1DDFF010120EE07F07D
:100A32000951D9260A51DA22E8CFDFFF010120EE5F
:100A420008F00951D9260A51DA22E0CFDFFF01016D
:100A520020EE09F00951D9260A51DA22D8CFDFFF58
:100A6200010120EE67F00951D9260A51DA22010E5E
:100A7200DF6E04C106F105C107F10101086B010136
:100A820020EE0AF00951D9260A51DA2206C1DEFF08
:100A920007C1DEFF08C1DEFF09C1F0F00AC1F1F0B3
:100AA200F4EC06F0120010EC07F0000E0101016FE9
:100AB200010E006F000E0101036FC80E026FAC0E33
:100AC2000101046F0C0E0101056FF2EC04F0000E3F
:100AD2000101016F020E006F000E0101036F640E2F
:100AE200026FDA0E0101046F0B0E0101056FF2ECC9
:100AF20004F0000E0101016F030E006F000E0101F0
:100B0200036F320E026F900E0101046F0B0E010192
:100B1200056FF2EC04F023EC07F000F0FED7000EB4
:100B2200066E02AE06D0016C021ED8B0022A010E79
:100B3200066E04AE04D0036C041ED8B0042A03501F
:100B42000410D8B418D0010E056E04D0D890033624
:100B52000436052A04AEFAD70350015C0450025849
:100B6200D8A004D00350015E0450025AD890043237
:100B72000332052EF1D70650D8B404D0016C021E00
:100B8200D8B0022A01C001F002C002F0120095940E
:100B920083948CB404D00001ED6BED2B02D00001E4
:100BA200ED6B0001ED47ED4783500001ED19FB0BA2
:100BB200ED19836E000E0001EF6F000EEE6F600EF6
:100BC2000001EE5DEA0E0001EF59D8B0E2D700F065
:100BD2000001EE4BEF2BF3D7959283928CB204D0A7
:100BE2000001EA6BEA2B02D00001EA6B0001EA473E
:100BF20083500001EA19FD0BEA19836E000E000111
:100C0200EC6F000EEB6F600E0001EB5DEA0E00016F
:100C1200EC59D8B0E3D700F00001EB4BEC2BF3D743
:100C220024EE46F001D80AD00500FA6EDE50FD6EC1
:100C3200DE50FE6EF850FF6EFA50120007C017F039
:100C420008C018F044C401F045C402F0FEEC06F0FE
:100C520017C044F418C045F444C401F045C402F07E
:100C620007EC07F01200000EE8CF43F4D60EE8CFEF
:100C720046F4080EE8CF47F4000E0001816F806948
:100C8200000E0001836F000E826F000E0001846F60
:100C92004E0E0001856F0E0E0001866F800EE8CFAA
:100CA20044F4000EE8CF45F41200959083908CB086
:100CB20003D03C6A3C2A01D03C6A83503C18FE0BAC
:100CC2003C18836E000E0001E96F000EE86F600EA3
:100CD2000001E85DEA0E0001E959D8B0E8D700F05A
:100CE2000001E84BE92BF3D701EE0BF013EE3DF0D8
:100CF200EE6AE550E150FCE1E250FAE100EE80F0EC
:100D0200680EEE6AE806FDE1416A406A3F6A3E6AA1
:100D12003D6A44904492000EF86E000154EF05F0D3
:100D2200D59EF29AF0C0F5F0F1C0F6F0F2C042F0B2
:100D3200F3C043F0D59CD59AD598D586D550F80BFB
:100D42000209D56EF294F18417EC07F0F28AD58E7F
:100D5200120043C4F2F00001F251680D0B0EF324AD
:100D62000001F36F030EF4200001F46F43C4E8FFA7
:100D7200010FE8CF43F4F3C0F0F0F4C0F1F0120039
:100D820001500302F3CF05F0F4CF06F00150040244
:100D9200F350062602500302F350062605C001F066
:100DA20006C002F012001DEC07F042504310D8B406
:100DB200120001D812000500FA6E4250FD6E435037
:100DC200FE6EF850FF6EFA501200270E0001F16F0E
:100DD200100EF06F220E0001F26F0C0E0001F36F85
:100DE20091EC06F01200000120EE04F0F051D92639
:100DF200F151DA22000EDF6E120020EE04F00150F3
:100E0200D9260250DA22000EDF6E120020EE04F024
:100E12000150D9260250DA22010EDF6E1200D38869
:100E2200D38AD38C9B9C34EC06F01200F294F5C06A
:100E3200D6FFF6C0D7FF1200F294F5C0D6FFF6C077
:100E4200D7FF1200E6EC06F0F28E120000F0FED799
:020000040020DA
:08000000FFFFFFFFFFFFFFFF00
:020000040030CA
:0E000000FF091F1EFF8185FF0FC00FE00F409C
:00000001FF
