:040000000BEF00F012
:100008004482FACF20F0FBCF21F00DED00F039EF5C
:1000180003F00600E9CF22F0EACF23F0E1CF24F085
:10002800E2CF25F0D9CF26F0DACF27F0F3CF28F0AA
:10003800F4CF29F0F6CF2AF0F7CF2BF0F8CF2CF039
:10004800F5CF2DF0416EE0CF3FF0D8CF40F0F2BAB7
:10005800F2A4DED044C42FF045C430F02F50301045
:10006800D8B45CD0070E2F24366E000E3020376EC1
:1000780036C0D9FF37C0DAFF41C0DFFF20EE01F0FC
:100088003650D9263750DA223FC0DFFF20EE02F083
:100098003650D9263750DA2240C0DFFF030E362407
:1000A800336E000E3720346E33D020EE5DF03350BF
:1000B800D9263450DA22DF502E6E20EE5DF0335010
:1000C800D9263450DA22DF2AFE501A6E196AFF50F8
:1000D8001B6E1C6A19501B121A501C12FD501B1261
:1000E800000E1C121BC01DF01CC01EF01F6A1EBE95
:1000F8001F682E50030DF3503324D96EF45034206A
:10010800DA6E1DC0DEFF1EC0DEFF1FC0DEFF060068
:10011800FCCF19F01F0E1916D8A4C7D798EC03F016
:1001280044C431F045C432F031503210D8B470D0E4
:10013800070E31243A6E000E32203B6E3AC0D9FFCA
:100148003BC0DAFFDF50416E20EE01F03A50D9266D
:100158003B50DA22DF503F6E20EE02F03A50D926AB
:100168003B50DA22DF50406E030E3A24386E000E00
:100178003B20396E44D020EE5DF03850D9263950F6
:10018800DA22DF06DF50356E0500100E196E355085
:10019800030DF3503824D96EF4503920DA6EDECFCF
:1001A8001AF0DECF1BF0DECF1CF019281D6E04D02C
:1001B800D8901C321B321A321D2EFAD71A50FF6EF5
:1001C8003550030DF3503824D96EF4503920DA6EC7
:1001D800DECF19F0DECF1AF0DECF1BF01AC019F00F
:1001E8001BC01AF01B6A1950FE6E3550030DF350F0
:1001F8003824D96EF4503920DA6EDF50FD6E20EEC7
:100208005DF03850D9263950DA22DF50D8A4B3D758
:100218003FC0E0FF40C0D8FF41502DC0F5FF2CC0C3
:10022800F8FF2BC0F7FF2AC0F6FF29C0F4FF28C04B
:10023800F3FF27C0DAFF26C0D9FF25C0E2FF24C09C
:10024800E1FF23C0EAFF22C0E9FF21C0FBFF20C075
:10025800FAFF449211000D680E68000E166E000E2B
:10026800156E16BE06D0165027E1030E155CD8B0E1
:1002780023D024EE44F015C001F016C002F0000EA1
:10028800046E680E036E85EC03F00B0E0B6E030E06
:100298000C6E01500B2602500C22DE500B1809E19F
:1002A800DE500C18D8A405D015C00DF016C00EF0FD
:1002B80003D0154A162AD5D7800E0F6E000E106E81
:1002C800000E146E000E136E14BE06D0145045E1D5
:1002D800030E135CD8B041D013500D24096E14508E
:1002E8000E200A6E010E0924016E000E0A20026E0D
:1002F800000E046E030E036E54EC02F001C011F000
:1003080002C012F011C001F012C002F0000E046E1B
:10031800680E036E85EC03F0040E0126000E02221F
:100328000B0E0124D96E030E0220DA6EDF50D8A41A
:1003380011D011C001F012C002F0000E046E680E58
:10034800036E85EC03F00B0E01240F6E030E0220E2
:10035800106E03D0134A142AB7D70FC007F010C085
:1003680008F012006EEC03F0F0C009F1F1C00AF1D8
:1003780009C1D9FF0AC1DAFF00C1DEFF01C1DDFFF3
:10038800010120EE02F00951D9260A51DA2202C1F0
:10039800DEFF03C1DDFF010120EE05F00951D9267A
:1003A8000A51DA2204C1DEFF05C1DDFF010120EE9A
:1003B80007F00951D9260A51DA22E8CFDFFF0101F7
:1003C80020EE08F00951D9260A51DA22E0CFDFFFE2
:1003D800010120EE09F00951D9260A51DA22D8CFB5
:1003E800DFFF010120EE67F00951D9260A51DA2210
:1003F800010EDF6E04C106F105C107F10101086BAA
:10040800010120EE0AF00951D9260A51DA2206C163
:10041800DEFF07C1DEFF08C1DEFF09C1F0F00AC137
:10042800F1F0B8EC03F01200D4EC03F0000E010177
:10043800016F010E006F000E0101036FC80E026FFD
:10044800340E0101046F060E0101056FB6EC01F0D0
:10045800000E0101016F020E006F000E0101036F13
:10046800640E026F620E0101046F050E0101056F33
:10047800B6EC01F0000E0101016F030E006F000ED3
:100488000101036F320E026F180E0101046F050E91
:100498000101056FB6EC01F0E7EC03F000F0FED7C0
:1004A800000E066E02AE06D0016C021ED8B0022AFB
:1004B800010E066E04AE04D0036C041ED8B0042AE4
:1004C80003500410D8B418D0010E056E04D0D8908B
:1004D80003360436052A04AEFAD70350015C0450EB
:1004E8000258D8A004D00350015E0450025AD89094
:1004F80004320332052EF1D70650D8B404D0016C6B
:10050800021ED8B0022A01C001F002C002F0120097
:10051800959483948CB404D00001ED6BED2B02D03C
:100528000001ED6B0001ED47ED4783500001ED1927
:10053800FB0BED19836E000E0001EF6F000EEE6FDE
:10054800600E0001EE5DEA0E0001EF59D8B0E2D767
:1005580000F00001EE4BEF2BF3D7959283928CB20B
:1005680004D00001EA6BEA2B02D00001EA6B00011B
:10057800EA4783500001EA19FD0BEA19836E000E61
:100588000001EC6F000EEB6F600E0001EB5DEA0EF0
:100598000001EC59D8B0E3D700F00001EB4BEC2B8D
:1005A800F3D724EE46F001D80AD00500FA6EDE50E3
:1005B800FD6EDE50FE6EF850FF6EFA50120007C056
:1005C80017F008C018F044C401F045C402F0C2ECAA
:1005D80003F017C044F418C045F444C401F045C4FE
:1005E80002F0CBEC03F01200000EE8CF43F45E0EED
:1005F800E8CF46F4020EE8CF47F4000E0001816F01
:100608008069000E0001836F000E826F000E0001EA
:10061800846FD60E0001856F070E0001866F800E6D
:10062800E8CF44F4000EE8CF45F41200959083908B
:100638008CB003D03C6A3C2A01D03C6A83503C18F9
:10064800FE0B3C18836E000E0001E96F000EE86F88
:10065800600E0001E85DEA0E0001E959D8B0E8D75C
:1006680000F00001E84BE92BF3D701EE0BF013EE95
:100678003DF0EE6AE550E150FCE1E250FAE100EEAF
:1006880080F0680EEE6AE806FDE1416A406A3F6A5A
:100698003E6A3D6A44904492000EF86E000118EFDD
:1006A80002F0D59EF29AF0C0F5F0F1C0F6F0F2C073
:1006B80042F0F3C043F0D59CD59AD598D586D5504D
:1006C800F80B0209D56EF294F184DBEC03F0F28AA0
:1006D800D58E120043C4F2F00001F251680D0B0EE2
:1006E800F3240001F36F030EF4200001F46F43C4F8
:1006F800E8FF010FE8CF43F4F3C0F0F0F4C0F1F0E5
:10070800120001500302F3CF05F0F4CF06F00150B8
:100718000402F350062602500302F350062605C0D1
:1007280001F006C002F01200E1EC03F04250431061
:10073800D8B4120001D812000500FA6E4250FD6EBE
:100748004350FE6EF850FF6EFA501200270E00015B
:10075800F16F100EF06FAA0E0001F26F050E000186
:10076800F36F55EC03F01200000120EE04F0F05195
:10077800D926F151DA22000EDF6E120020EE04F0C5
:100788000150D9260250DA22000EDF6E120020EE48
:1007980004F00150D9260250DA22010EDF6E120051
:1007A800D388D38AD38C9B9CF8EC02F01200F29485
:1007B800F5C0D6FFF6C0D7FF1200F294F5C0D6FFF9
:1007C800F6C0D7FF1200AAEC03F0F28E120000F078
:0207D800FED74A
:020000040020DA
:08000000FFFFFFFFFFFFFFFF00
:020000040030CA
:0E000000FF091F1EFF8185FF0FC00FE00F409C
:00000001FF
