:040000000BEF00F012
:100008003D82FACF1CF0FBCF1DF00DED00F0A8EFFC
:1000180007F00600E9CF1EF0EACF1FF0E1CF20F08D
:10002800E2CF21F0D9CF22F0DACF23F0F3CF24F0BA
:10003800F4CF25F0F6CF26F0F7CF27F0F8CF28F049
:10004800F5CF29F03A6EE0CF38F0D8CF39F0F2BAD0
:10005800F2A4DED07CC12BF07DC12CF02B502C10EB
:10006800D8B45CD0070E2B24346E000E2C20356ECD
:1000780034C0D9FF35C0DAFF3AC0DFFF20EE01F007
:100088003450D9263550DA2238C0DFFF20EE02F08E
:100098003450D9263550DA2239C0DFFF030E342414
:1000A8002F6E000E3520306E33D020EE1EF02F500C
:1000B800D9263050DA22DF502A6E20EE1EF02F505B
:1000C800D9263050DA22DF2AFE50166E156AFF5004
:1000D800176E186A1550171216501812FD5017127D
:1000E800000E181217C019F018C01AF01B6A1ABEB1
:1000F8001B682A50030DF3502F24D96EF45030207A
:10010800DA6E19C0DEFF1AC0DEFF1BC0DEFF060074
:10011800FCCF15F01F0E1516D8A4C7D76DEC08F044
:100128007CC12DF07DC12EF02D502E10D8B470D08A
:10013800070E2D24366E000E2E20376E36C0D9FFDE
:1001480037C0DAFFDF503A6E20EE01F03650D9267C
:100158003750DA22DF50386E20EE02F03650D926BA
:100168003750DA22DF50396E030E3624326E000E15
:100178003720336E44D020EE1EF03250D92633504B
:10018800DA22DF06DF50316E0500100E156E315091
:10019800030DF3503224D96EF4503320DA6EDECFDB
:1001A80016F0DECF17F0DECF18F01528196E04D040
:1001B800D890183217321632192EFAD71650FF6E09
:1001C8003150030DF3503224D96EF4503320DA6ED7
:1001D800DECF15F0DECF16F0DECF17F016C015F023
:1001E80017C016F0176A1550FE6E3150030DF35004
:1001F8003224D96EF4503320DA6EDF50FD6E20EED3
:100208001EF03250D9263350DA22DF50D8A4B3D7A3
:1002180038C0E0FF39C0D8FF3A5029C0F5FF28C0E0
:10022800F8FF27C0F7FF26C0F6FF25C0F4FF24C05B
:10023800F3FF23C0DAFF22C0D9FF21C0E2FF20C0AC
:10024800E1FF1FC0EAFF1EC0E9FF1DC0FBFF1CC085
:10025800FAFF3D9211000001B2510001B311D8A478
:1002680007D0000E0001B26F000E0001B36F12003C
:10027800CEC0BEF0CFC0BFF00001BE510001BF111B
:10028800D8A40BD0090E0001CE6F030E0001CF6F6A
:10029800CEC0BEF0CFC0BFF0C7D0B2C0A8F0B3C0C8
:1002A800A9F004EC07F0A8C0BCF0A9C0BDF000019B
:1002B800BC510001BD11D8B438D0BCC0D9FFBDC0F5
:1002C800DAFF050E0001B2250001B66F000E00012D
:1002D800B3210001B76FDE500001B65DDE500001AA
:1002E800B759D8B00AD0BCC0A8F0BDC0A9F0B2C0F8
:1002F800AAF0B3C0ABF028EC03F0BCC0BEF0BDC0A0
:10030800BFF0000120EE04F0BE51D926BF51DA2219
:10031800000EDF6E050E0001BE250001B26F000E53
:100328000001BF210001B36F1200BEC0D9FFBFC0DA
:10033800DAFFDECFB4F0DDCFB5F0050E0001B4254D
:100348000001BA6F000E0001B5210001BB6F2BD070
:10035800000120EE02F0BE51D926BF51DA22DECFCD
:10036800B4F0DDCFB5F0B4C0D9FFB5C0DAFFDECF49
:10037800B6F0DDCFB7F0050E0001B627000EB723A3
:100388000001B6510001BA270001B7510001BB2393
:10039800000120EE02F0BE51D926BF51DA22DECF8D
:1003A800BEF0DDCFBFF0000120EE02F0BE51D9262D
:1003B800BF51DA22DE50DE10D8A4CAD70001B251EC
:1003C8000001BA250001B46F0001B3510001BB213F
:1003D8000001B56F050E0001B427000EB523020E0B
:1003E8000001B55DD8A007D0000E0001B26F000E65
:1003F8000001B36F1200BEC0B8F0BFC0B9F0090E5B
:100408000001BA250001BE6F030E0001BB210001E7
:10041800BF6F000120EE02F0B851D926B951DA2297
:10042800BEC0DEFFBFC0DDFFBEC0D9FFBFC0DAFF60
:10043800B2C0DEFFB3C0DDFF000120EE04F0BE5104
:10044800D926BF51DA22000EDF6E000120EE02F03D
:10045800BE51D926BF51DA22000EDE6E000EDD6EC7
:10046800050E0001BE250001B26F000E0001BF217C
:100478000001B36F12000201626FF29E7CC167F245
:100488007DC168F20201675102016811D8B454D0E5
:10049800070E0201672502016F6F000E0201682135
:1004A8000201706F6FC2D9FF70C2DAFFE8CFDFFFB9
:1004B800020120EE01F06F51D9267051DA22E0CF07
:1004C800DFFF020120EE02F06F51D9267051DA22C7
:1004D800D8CFDFFF030E02016F2502016B6F000EFC
:1004E8000201702102016C6F24D0020120EE1EF07F
:1004F8006B51D9266C51DA22DF500201656F020177
:1005080020EE1EF06B51D9266C51DA22DF2A020147
:100518006551030DF35002016B25D96EF4500201A9
:100528006C21DA6EFDCFDEFFFECFDEFFFFCFDEFFF0
:100538000600FC50D8A4D9D7010120EE04F07C5164
:10054800D9267D51DA2262C2DFFF21EE7EF001D882
:100558000AD00500FA6EDE50FD6EDE50FE6EF850D1
:10056800FF6EFA50120055C263F256C264F263C2BB
:100578007CF164C27DF17CC14FF27DC150F2B7ECD1
:1005880008F07CC169F27DC16AF202016951020179
:100598006A11D8B457D0070E020169250201716F9C
:1005A800000E02016A210201726F71C2D9FF72C284
:1005B800DAFFDF500201616F02016151020120EE92
:1005C80001F07151D9267251DA22DF50E06E020132
:1005D80020EE02F07151D9267251DA22DF50D86E1E
:1005E800030E0201712502016D6F000E02017221D6
:1005F80002016E6F1DD0020120EE1EF06D51D9264A
:100608006E51DA22DF06DF500201666F0500020133
:100618006651030DF35002016D25D96EF4500201A5
:100628006E21DA6EDECFFDFFDECFFEFFDDCFFFFFEE
:10063800020120EE1EF06D51D9266E51DA22DF50EC
:10064800D8A4D9D7F28E12000001AA510001A8251A
:100658000001AC6F0001AB510001A9210001AD6F91
:10066800050E0001AC250001B06F000E0001AD21A0
:100678000001B16FA8C0D9FFA9C0DAFFDECFACF086
:10068800DDCFADF0050E0001AA250001AE6F000E0A
:100698000001AB210001AF6F0001AE1FAF1FAE4BD1
:1006A800AF2B0001AC510001AE270001AD51000194
:1006B800AF23B0C0D9FFB1C0DAFFAEC0DEFFAFC014
:1006C800DDFF000120EE04F0B051D926B151DA2245
:1006D800010EDF6E000120EE02F0A851D926A951C3
:1006E800DA22000110EE02F0B051E126B151E22207
:1006F800DECFE6FFDDCFE5FF000120EE02F0A851D6
:10070800D926A951DA22B0C0DEFFB1C0DDFFA8C0EA
:10071800D9FFA9C0DAFFAAC0DEFFABC0DDFF120017
:10072800CEC053F2CFC054F25FD0020120EE02F0E7
:100738005351D9265451DA22DECF51F2DDCF52F28D
:100748000201535102015411D8B443D0020120EEE2
:1007580004F05351D9265451DA22DF50D8B439D095
:100768000201515102015211D8B433D0020120EED6
:1007780004F05151D9265251DA22DF50D8B429D089
:1007880051C2D9FF52C2DAFFDECF4FF2DDCF50F2AD
:10079800050E02014F27000E502353C2D9FF54C241
:1007A800DAFF02014F51DE265051DD22020120EE10
:1007B80002F05151D9265251DA22020110EE02F00C
:1007C8005351E1265451E222DECFE6FFDDCFE5FFAB
:1007D8000BD0020120EE02F05351D9265451DA22EF
:1007E800DECF53F2DDCF54F202015351020154110E
:1007F800D8B412009AD73DB277EF05F0800E020107
:100808005B6F010E02015C6F000E02015E6F000E4D
:100818005D6F3AD05DC24FF25EC250F2000E020127
:10082800526F290E516F01EC08F0000E02014F259E
:1008380002015F6F010E020150210201606F020187
:1008480020EE04F05F51D9266051DA22DF50D8A497
:1008580018D0020120EE02F05F51D9266051DA2249
:10086800020110EE02F05B51E1265C51E222DE50FB
:10087800E65CDE50E658D8B004D05FC25BF260C2D6
:100888005CF202015D4B5E2B01017B510201576F47
:10089800586B0201575102015D5D02015E51800AE9
:1008A8000201596F02015851800A02015959D8A012
:1008B800B1D75BC255F25CC256F212005BEC08F08D
:1008C8007DC281F27EC282F281C2D9FF82C2DAFF82
:1008D80000C3DEFF01C3DDFF020120EE02F08151FB
:1008E800D9268251DA2202C3DEFF03C3DDFF0201EB
:1008F80020EE05F08151D9268251DA2204C3DEFFA9
:1009080005C3DDFF020120EE07F08151D92682518F
:10091800DA22E8CFDFFF020120EE08F08151D92664
:100928008251DA22E0CFDFFF020120EE09F0815187
:10093800D9268251DA22D8CFDFFF020120EE28F033
:100948008151D9268251DA22010EDF6E04C306F3E3
:1009580005C307F30301086B020120EE0AF0815179
:10096800D9268251DA2206C3DEFF07C3DEFF08C399
:10097800DEFF81C27DF282C27EF2ADEC08F0120089
:10098800000E0001B36F040EB26F2FEC01F0B2C07D
:10099800C8F0B3C0C9F00001C8510001C911D8B4EA
:1009A8001200C8C0D9FFC9C0DAFF000EDE6E000E03
:1009B800DD6E000120EE02F0C851D926C951DA22B5
:1009C800C2C0DEFFC3C0DDFF000120EE02F0C0514F
:1009D800D926C151DA22DECFC6F0DDCFC7F0C0C0BC
:1009E800D9FFC1C0DAFFDE50DE10D8B413D0000141
:1009F80020EE01F0C651D926C751DA22DECFC4F065
:100A0800DDCFC5F0C4C0D9FFC5C0DAFFC8C0DEFF5E
:100A1800C9C0DDFF000120EE01F0C651D926C7513B
:100A2800DA22C8C0DEFFC9C0DDFFC6C0D9FFC7C013
:100A3800DAFFDF2A1200020120EE02F05951D9260E
:100A48005A51DA22DECF61F2DDCF62F261C2D9FFFC
:100A580062C2DAFFDF50D8B4120061C2D9FF62C2A5
:100A6800DAFFDE04D8A41BD059C2D9FF5AC2DAFF74
:100A7800DECF55F2DDCF56F2E5EC07F061C2D9FFC3
:100A880062C2DAFFDF06020120EE01F06151D926C9
:100A98006251DA22000EDE6E000EDD6E120059C2BF
:100AA800D9FF5AC2DAFFDECF5FF2DDCF60F259C25A
:100AB800D9FF5AC2DAFFDECF5BF2DDCF5CF25BC250
:100AC800D9FF5CC2DAFFDECF5DF2DDCF5EF261C234
:100AD800D9FF62C2DAFFDF065FC255F260C256F282
:100AE800E5EC07F01200800E0D6E010E0E6E000E82
:100AF800106E000E0F6E31D00FC001F010C002F062
:100B0800000E046E290E036E48EC08F0000E012456
:100B1800116E010E0220126E20EE04F01150D9263B
:100B28001250DA22DF50D8A416D020EE02F011506D
:100B3800D9261250DA2210EE02F00D50E1260E509E
:100B4800E222DE50E65CDE50E658D8B004D011C090
:100B58000DF012C00EF00F4A102A01017B51096EE8
:100B68000A6A09500F5C1050800A0B6E0A50800AFE
:100B78000B58D8A0C1D70DC007F00EC008F012005E
:100B8800000E0001B36F040EB26F2FEC01F098C095
:100B9800D9FF99C0DAFF0001B2C0DEFF0001B3C07F
:100BA800DDFF000E0001B36F030EB26F2FEC01F0F2
:100BB800B2C09CF0B3C09DF09CC0D9FF9DC0DAFFC5
:100BC800000EDF6E000120EE01F09C51D9269D51E8
:100BD800DA22000EDE6E000EDD6E98C0D9FF99C0D5
:100BE800DAFF10EE02F0DE50E126DD50E2229CC072
:100BF800E6FF9DC0E5FF98C0D9FF99C0DAFFDECFB8
:100C08009AF0DDCF9BF09AC0D9FF9BC0DAFF000EA7
:100C1800DE6E000EDD6E120073C2D9FF74C2DAFFF9
:100C2800DF2ADF50800A7F0FD8B01200020120EEC1
:100C380001F07351D9267451DA22DECF4FF2DDCF9D
:100C480050F27FEC08F00009D8B41200020120EE3F
:100C580001F07351D9267451DA22DECF4FF2DDCF7D
:100C680050F290EC08F04FC276F250C277F20201CF
:100C780020EE01F07351D9267451DA22DECF59F2F1
:100C8800DDCF5AF21FEC05F076C24FF277C250F270
:100C9800C1EC08F0000E3FEC02F012009590839032
:100CA800D00E00019E6F000E00019F6F000E000124
:100CB800A06F35EC08F0D40E00019E6F000E000105
:100CC8009F6F000E0001A06F35EC08F08CB004D0C7
:100CD8000001A56BA52B02D00001A56B8350000174
:100CE800A519FE0BA519836E000E0001A76F000E53
:100CF800A66F600E0001A65DEA0E0001A759D8B0E4
:100D080005D000F00001A64BA72BF3D7D00E0001A9
:100D1800CA6F000E0001CB6FC8EC07F0D7D7DDEC27
:100D280008F0000E0301016F010E006F000E0301B1
:100D3800036FC80E026FA40E0301046F0C0E0301AB
:100D4800056F62EC04F0000E0301016F020E006FE4
:100D5800000E0301036F640E026F9E0E0301046F01
:100D68000D0E0301056F62EC04F0000E0301016F24
:100D7800030E006F000E0301036F320E026F6A0E3E
:100D88000301046F0E0E0301056F62EC04F0F0EC32
:100D980008F000F0FED7959283928CB204D000013F
:100DA800CD6BCD2B02D00001CD6B0001CD47835018
:100DB8000001CD19FD0BCD19836E000E02014E6F97
:100DC800000E4D6F600E02014D5DEA0E02014E5994
:100DD800D8B005D000F002014D4B4E2BF3D7D40EFE
:100DE8000001CA6F000E0001CB6FC8EC07F0D00EEF
:100DF8000201736F000E0201746F10EC06F0CDD77C
:100E0800CEC0ACF0CFC0ADF00BD0000120EE02F0A8
:100E1800AC51D926AD51DA22DECFACF0DDCFADF042
:100E28000001AC510001AD11D8B416D0000120EE7C
:100E380004F0AC51D926AD51DA22DF50D8B4E5D749
:100E4800ACC0D9FFADC0DAFF0001A851DE5C0001DB
:100E5800A951DE58D8A0D9D7ACC0A8F0ADC0A9F028
:100E68001200959483948CB404D00201786B782B8B
:100E780002D00201786B020178477847835002015B
:100E88007819FB0B7819836E000E02017A6F000E39
:100E9800796F600E0201795DEA0E02017A59D8B0C5
:100EA80005D000F00201794B7A2BF3D7D40E02015A
:100EB800736F000E0201746F10EC06F0D4D721EEA8
:100EC8007EF001D80AD00500FA6EDE50FD6EDE50C5
:100ED800FE6EF850FF6EFA50120007C013F008C0FB
:100EE80014F07CC101F07DC102F0D4EC08F013C00D
:100EF8007CF114C07DF17CC101F07DC102F0CBEC26
:100F080008F01200000E01017B6FFE0E01017E6FDA
:100F1800070E01017F6F000E0101816F8069000ECD
:100F28000101836F000E826F000E0101846FE80ECD
:100F38000101856F110E0101866F800E01017C6F22
:100F4800010E01017D6F120003EE09F012EE00F0B0
:100F5800EE6AE550E150FCE1E250FAE101EE00F002
:100F6800A90EEE6AE806FDE100EECEF00A0EEE6A82
:100F7800E806FDE13A6A396A386A3D903D92000E0A
:100F8800F86E000193EF06F0CAC0D9FFCBC0DAFFB4
:100F9800DF06000EDBAE1200000120EE01F0CA51A0
:100FA800D926CB51DA22DECFC0F0DDCFC1F07CC12B
:100FB800C2F07DC1C3F0C4EC04F0020E3FEC02F0B5
:100FC80012000201555102015611D8B41200FB0E4D
:100FD800020155250201576FFF0E02015621020139
:100FE800586F020120EE04F05751D9265851DA22E1
:100FF800010EDF6E94EC03F0120002014F51020162
:101008005103F3CF53F2F4CF54F202014F510201CE
:101018005203F350020154270201505102015103B7
:10102800F3500201542753C24FF254C250F2120037
:10103800D59EF29A7DC2A9F17EC2AAF17FC23BF089
:1010480080C23CF0D59CD59AD598D586D550F80B5A
:101058000209D56EF294F184E4EC08F0F28AD58E98
:1010680012009EC0D9FF9FC0DAFFA0C0DFFF010EAB
:1010780000019E250001986F000E00019F210001CC
:10108800996FC4EC05F0120001500302F3CF05F08C
:10109800F4CF06F001500402F35006260250030272
:1010A800F350062605C001F006C002F01200010147
:1010B8007B51290D000EF32402017F6F010EF420ED
:1010C8000201806F01017B2B7FC27DF280C27EF21C
:1010D8001200EAEC08F03B503C10D8B4120001D8DA
:1010E80012000500FA6E3B50FD6E3C50FE6EF85043
:1010F800FF6EFA501200020120EE02F04F51D9267D
:101108005051DA22DECF51F2DDCF52F251C2D9FF6F
:1011180052C2DAFFDF5012004FC2D9FF50C2DAFFC5
:1011280010EE02F0DE50E126DD50E222E6CF4FF26B
:10113800E5CF50F21200270E02017E6F100E7D6F70
:10114800C60E02017F6F0E0E0201806F1CEC08F0C4
:101158001200020120EE04F07D51D9267E51DA22D8
:10116800000EDF6E1200020120EE04F04F51D92666
:101178005051DA22010EDF6E1200020120EE04F057
:101188004F51D9265051DA22000EDF6E120020EEA0
:1011980004F00150D9260250DA22010EDF6E120047
:1011A80020EE04F00150D9260250DA22000EDF6E3C
:1011B8001200D388D38AD38C9B9C86EC07F012004C
:1011C800F294A9C1D6FFAAC1D7FF1200F294A9C10F
:1011D800D6FFAAC1D7FF12009FEC08F0F28E1200CA
:0611E80000F0FED712002A
:020000040020DA
:08000000FFFFFFFFFFFFFFFF00
:020000040030CA
:0E000000FF091F1EFF8185FF0FC00FE00F409C
:00000001FF
