:040000000BEF00F012
:100008004482FACF20F0FBCF21F00DED00F035EF60
:1000180003F00600E9CF22F0EACF23F0E1CF24F085
:10002800E2CF25F0D9CF26F0DACF27F0F3CF28F0AA
:10003800F4CF29F0F6CF2AF0F7CF2BF0F8CF2CF039
:10004800F5CF2DF0416EE0CF3FF0D8CF40F0F2BAB7
:10005800F2A4DED03FC22FF040C230F02F50301053
:10006800D8B45CD0070E2F24366E000E3020376EC1
:1000780036C0D9FF37C0DAFF41C0DFFF20EE01F0FC
:100088003650D9263750DA223FC0DFFF20EE02F083
:100098003650D9263750DA2240C0DFFF030E362407
:1000A800336E000E3720346E33D020EE5DF03350BF
:1000B800D9263450DA22DF502E6E20EE5DF0335010
:1000C800D9263450DA22DF2AFE501A6E196AFF50F8
:1000D8001B6E1C6A19501B121A501C12FD501B1261
:1000E800000E1C121BC01DF01CC01EF01F6A1EBE95
:1000F8001F682E50030DF3503324D96EF45034206A
:10010800DA6E1DC0DEFF1EC0DEFF1FC0DEFF060068
:10011800FCCF19F01F0E1916D8A4C7D792EC03F01C
:100128003FC231F040C232F031503210D8B470D0F2
:10013800070E31243A6E000E32203B6E3AC0D9FFCA
:100148003BC0DAFFDF50416E20EE01F03A50D9266D
:100158003B50DA22DF503F6E20EE02F03A50D926AB
:100168003B50DA22DF50406E030E3A24386E000E00
:100178003B20396E44D020EE5DF03850D9263950F6
:10018800DA22DF06DF50356E0500100E196E355085
:10019800030DF3503824D96EF4503920DA6EDECFCF
:1001A8001AF0DECF1BF0DECF1CF019281D6E04D02C
:1001B800D8901C321B321A321D2EFAD71A50FF6EF5
:1001C8003550030DF3503824D96EF4503920DA6EC7
:1001D800DECF19F0DECF1AF0DECF1BF01AC019F00F
:1001E8001BC01AF01B6A1950FE6E3550030DF350F0
:1001F8003824D96EF4503920DA6EDF50FD6E20EEC7
:100208005DF03850D9263950DA22DF50D8A4B3D758
:100218003FC0E0FF40C0D8FF41502DC0F5FF2CC0C3
:10022800F8FF2BC0F7FF2AC0F6FF29C0F4FF28C04B
:10023800F3FF27C0DAFF26C0D9FF25C0E2FF24C09C
:10024800E1FF23C0EAFF22C0E9FF21C0FBFF20C075
:10025800FAFF449211000D680E68000E166E000E2B
:10026800156E16BE06D0165027E1030E155CD8B0E1
:1002780023D022EE3FF015C001F016C002F0000EA8
:10028800046E680E036E7FEC03F0060E0B6E010E13
:100298000C6E01500B2602500C22DE500B1809E19F
:1002A800DE500C18D8A405D015C00DF016C00EF0FD
:1002B80003D0154A162AD5D7800E0F6E000E106E81
:1002C800000E146E000E136E14BE06D0145045E1D5
:1002D800030E135CD8B041D013500D24096E14508E
:1002E8000E200A6E010E0924016E000E0A20026E0D
:1002F800000E046E030E036E54EC02F001C011F000
:1003080002C012F011C001F012C002F0000E046E1B
:10031800680E036E7FEC03F0040E0126000E022225
:10032800060E0124D96E010E0220DA6EDF50D8A421
:1003380011D011C001F012C002F0000E046E680E58
:10034800036E7FEC03F0060E01240F6E010E0220EF
:10035800106E03D0134A142AB7D70FC007F010C085
:1003680008F0120068EC03F0EEC0F6F0EFC0F7F00A
:10037800F6C0D9FFF7C0DAFF00C1DEFF01C1DDFF1B
:10038800000120EE02F0F651D926F751DA2202C117
:10039800DEFF03C1DDFF000120EE05F0F651D9268E
:1003A800F751DA2204C1DEFF05C1DDFF000120EEAE
:1003B80007F0F651D926F751DA22E8CFDFFF00011E
:1003C80020EE08F0F651D926F751DA22E0CFDFFF08
:1003D800000120EE09F0F651D926F751DA22D8CFDC
:1003E800DFFF000120EE67F0F651D926F751DA2237
:1003F800010EDF6E04C1F3F005C1F4F00001F56BE6
:10040800000120EE0AF0F651D926F751DA22F3C09E
:10041800DEFFF4C0DEFFF5C0DEFFF6C0EEF0F7C089
:10042800EFF0B2EC03F01200CEEC03F0000E010185
:10043800016F010E006F000E0101036FC80E026FFD
:10044800340E0101046F060E0101056FB6EC01F0D0
:10045800000E0101016F020E006F000E0101036F13
:10046800640E026F620E0101046F050E0101056F33
:10047800B6EC01F0000E0101016F030E006F000ED3
:100488000101036F320E026F180E0101046F050E91
:100498000101056FB6EC01F0E1EC03F000F0FED7C6
:1004A800000E066E02AE06D0016C021ED8B0022AFB
:1004B800010E066E04AE04D0036C041ED8B0042AE4
:1004C80003500410D8B418D0010E056E04D0D8908B
:1004D80003360436052A04AEFAD70350015C0450EB
:1004E8000258D8A004D00350015E0450025AD89094
:1004F80004320332052EF1D70650D8B404D0016C6B
:10050800021ED8B0022A01C001F002C002F0120097
:10051800959483948CB404D00001EB6BEB2B02D040
:100528000001EB6B0001EB47EB4783500001EB192F
:10053800FB0BEB19836E000E0001ED6F000EEC6FE4
:10054800600E0001EC5DEA0E0001ED59D8B0E2D76B
:1005580000F00001EC4BED2BF3D7959283928CB20F
:1005680004D00001E86BE82B02D00001E86B000121
:10057800E84783500001E819FD0BE819836E000E67
:100588000001EA6F000EE96F600E0001E95DEA0EF6
:100598000001EA59D8B0E3D700F00001E94BEA2B93
:1005A800F3D722EE41F001D80AD00500FA6EDE50EA
:1005B800FD6EDE50FE6EF850FF6EFA50120007C056
:1005C80017F008C018F03FC201F040C202F0BCECBE
:1005D80003F017C03FF218C040F23FC201F040C21A
:1005E80002F0C5EC03F01200000EE8CF3EF25E0EFA
:1005F800E8CF41F2020EE8CF42F2000E0001816F0F
:100608008069000E0001836F000E826F000E0001EA
:10061800846FCA0E0001856F070E0001866F800E79
:10062800E8CF3FF2000EE8CF40F212009590839099
:100638008CB003D03C6A3C2A01D03C6A83503C18F9
:10064800FE0B3C18836E000E3E6E000E3D6E600E73
:100658003D5CEA0E3E58D8B0EBD700F03D4A3E2A42
:10066800F6D701EE06F011EE3DF0EE6AE550E150E6
:10067800FCE1E250FAE100EE80F0680EEE6AE8066E
:10068800FDE1416A406A3F6A44904492000EF86E68
:10069800000118EF02F0D59EF29AEEC0F8F0EFC014
:1006A800F9F0F0C042F0F1C043F0D59CD59AD59846
:1006B800D586D550F80B0209D56EF294F184D5ECA5
:1006C80003F0F28AD58E12003EC2F0F00001F0511C
:1006D800680D060EF3240001F16F010EF4200001ED
:1006E800F26F3EC2E8FF010FE8CF3EF2F1C0EEF034
:1006F800F2C0EFF0120001500302F3CF05F0F4CF7F
:1007080006F001500402F350062602500302F3508B
:10071800062605C001F006C002F01200DBEC03F06B
:1007280042504310D8B4120001D812000500FA6EE6
:100738004250FD6E4350FE6EF850FF6EFA501200A4
:10074800270E0001EF6F100EEE6FAA0E0001F06F7A
:10075800050E0001F16F4FEC03F01200000120EECE
:1007680004F0EE51D926EF51DA22000EDF6E1200A6
:1007780020EE04F00150D9260250DA22000EDF6E76
:10078800120020EE04F00150D9260250DA22010EA0
:10079800DF6E1200D388D38AD38C9B9CF8EC02F0CE
:1007A8001200F294F8C0D6FFF9C0D7FF1200F294F5
:1007B800F8C0D6FFF9C0D7FF1200A4EC03F0F28E00
:0607C800120000F0FED754
:020000040020DA
:08000000FFFFFFFFFFFFFFFF00
:020000040030CA
:0E000000FF091F1EFF8185FF0FC00FE00F409C
:00000001FF
